:100000000C942A000C943F000C943F000C943F0089
:100010000C943F000C943F000C943F000C943F0064
:100020000C943F000C943F000C943F000C943F0054
:100030000C943F000C943F000C943F000C943F0044
:100040000C943F000C943F000C943F000C943F0034
:100050000C943F0011241FBECFE5D8E0DEBFCDBF1A
:1000600011E0A0E6B0E0E8E0F3E502C005900D92F3
:10007000AA3EB107D9F70E9407130C9482290C9469
:100080000000EF92FF920F931F937B018C0120E001
:1000900030E040E05FE40E94410388238CF0C80117
:1000A000B70120E030E040E05FE40E94B9010E9427
:1000B000A1039B01AC01205030404040504806C095
:1000C000C801B7010E94A1039B01AC01B901CA019B
:1000D0001F910F91FF90EF900895A0E0B0E0E3E74B
:1000E000F0E00C944B29DC012B01FA019C91923039
:1000F00008F439C1EB018881823008F433C19430AF
:1001000069F4843009F02FC111969C91119789816F
:10011000981709F428C1A2EAB1E025C1843009F496
:1001200021C18230A9F4923009F01DC19A01AD01BC
:1001300088E0EA010990AE01E90109929E0181502F
:10014000C1F7E201898111969C918923818308C1BD
:10015000923009F407C112962D903C901397EB0151
:100160008A819B811496AD90BD90CD90DC901797BD
:10017000EC80FD800E811F819101281B390BB90194
:1001800037FF04C066277727621B730B6032710547
:100190000CF061C0121613066CF537014801062EEB
:1001A00004C096948794779467940A94D2F721E0D8
:1001B00030E040E050E004C0220F331F441F551FC1
:1001C0006A95D2F721503040404050402E213F21C7
:1001D00040235123211531054105510521F021E02E
:1001E00030E040E050E079018A01E628F72808294C
:1001F00019293CC0232BD1F1260E371E35014601AB
:10020000062E04C096948794779467940A94D2F744
:1002100021E030E040E050E004C0220F331F441FD3
:10022000551F6A95D2F721503040404050402A2156
:100230003B214C215D21211531054105510521F05E
:1002400021E030E040E050E059016A01A628B728DB
:10025000C828D9280BC0821593052CF01C01AA24AC
:10026000BB24650103C0EE24FF24870111969C91F5
:10027000D20111968C91981709F445C0992339F051
:10028000A80197012A193B094C095D0906C0A6017E
:1002900095012E193F09400B510B57FD08C01182E3
:1002A0003382228224833583468357831DC081E0B5
:1002B00081833382228288279927DC01821B930B5A
:1002C000A40BB50B84839583A683B7830DC0220F3F
:1002D000331F441F551F24833583468357838281F0
:1002E000938101979383828324813581468157814D
:1002F000DA01C9010197A109B1098F5F9F4FAF4F83
:10030000BF4328F30BC0918333822282EA0CFB1C8B
:100310000C1D1D1DE482F5820683178383E0808314
:10032000248135814681578157FF1AC0C901AA2708
:1003300097FDA095BA2F81709070A070B0705695FF
:10034000479537952795822B932BA42BB52B848328
:100350009583A683B7838281938101969383828359
:10036000DF0101C0D201CD01CDB7DEB7E2E10C94CF
:100370006729A0E2B0E0EFEBF1E00C945729698324
:100380007A838B839C832D833E834F835887E9E058
:10039000EE2EF12CEC0EFD1ECE010196B7010E944F
:1003A000CA048E010F5E1F4FCE010596B8010E9450
:1003B000CA048A8991E089278A8BC701B801AE01F6
:1003C000475E5F4F0E946D000E94F503A096E6E035
:1003D0000C947329A0E2B0E0E0EFF1E00C9457290F
:1003E00069837A838B839C832D833E834F835887D5
:1003F000F9E0EF2EF12CEC0EFD1ECE010196B701B7
:100400000E94CA048E010F5E1F4FCE010596B801EF
:100410000E94CA04C701B801AE01475E5F4F0E9447
:100420006D000E94F503A096E6E00C947329A0E20B
:10043000B0E0EDE1F2E00C944B2969837A838B8381
:100440009C832D833E834F835887CE010196BE0146
:10045000675F7F4F0E94CA04CE010596BE016F5EA2
:100460007F4F0E94CA049985923088F08989823032
:10047000C8F0943019F4823051F404C0843029F467
:10048000923081F482EA91E0C6C0923049F420E0D3
:100490009A858A89981321E02A87CE010996BBC0E4
:1004A000823049F420E09A858A89981321E02A8BCA
:1004B000CE014196B0C02D843E844F8458886D880B
:1004C0007E888F88988CEE24FF248701AA24BB2481
:1004D000650140E050E060E070E0E0E0F0E0C10184
:1004E00081709070892BE9F0E60CF71C081D191D2E
:1004F0009A01AB012A0D3B1D4C1D5D1D80E090E073
:10050000A0E0B0E0E614F7040805190520F481E046
:1005100090E0A0E0B0E0BA01A901480F591F6A1F9E
:100520007B1FAA0CBB1CCC1CDD1C97FE08C081E005
:1005300090E0A0E0B0E0A82AB92ACA2ADB2A3196C6
:10054000E032F10549F0660C771C881C991C569422
:10055000479437942794C3CFFA85EA892B893C893D
:100560008B859C85280F391F2E5F3F4F17C0CA010E
:1005700081709070892B61F016950795F794E79438
:1005800080E090E0A0E0B0E8E82AF92A0A2B1B2BD3
:1005900076956795579547952F5F3F4F77FDE7CF46
:1005A0000CC0440F551F661F771F17FD4160EE0CEE
:1005B000FF1C001F111F21503040403090E05907B0
:1005C00090E0690790E4790760F32B8F3C8FDB01A3
:1005D000CA018F779070A070B07080349105A1052A
:1005E000B10561F447FD0AC0E114F10401051105EC
:1005F00029F0405C5F4F6F4F7F4F40781A8EFE1797
:1006000011F081E08A8F4D8F5E8F6F8F78A383E02A
:10061000898FCE0149960E94F503A096E2E10C94E1
:100620006729A8E1B0E0E7E1F3E00C94572969837A
:100630007A838B839C832D833E834F83588789E005
:10064000E82EF12CEC0EFD1ECE010196B7010E94A2
:10065000CA048E010F5E1F4FCE010596B8010E949D
:10066000CA048985823040F08989823028F0C70128
:10067000B8010E94420501C08FEF6896E6E00C9435
:100680007329A8E1B0E0E7E4F3E00C94572969830B
:100690007A838B839C832D833E834F83588789E0A5
:1006A000E82EF12CEC0EFD1ECE010196B7010E9442
:1006B000CA048E010F5E1F4FCE010596B8010E943D
:1006C000CA048985823040F08989823028F0C701C8
:1006D000B8010E94420501C08FEF6896E6E00C94D5
:1006E0007329A8E1B0E0E7E7F3E00C9457296983A8
:1006F0007A838B839C832D833E834F83588789E045
:10070000E82EF12CEC0EFD1ECE010196B7010E94E1
:10071000CA048E010F5E1F4FCE010596B8010E94DC
:10072000CA048985823040F08989823028F0C70167
:10073000B8010E94420501C081E06896E6E00C9491
:100740007329ACE0B0E0E7EAF3E00C945B2969833D
:100750007A838B839C83CE010196BE016B5F7F4FB2
:100760000E94CA048D81823061F1823050F1843060
:1007700021F48E81882351F12EC02F81388537FDD9
:1007800020C06E812F3131051CF06623F9F023C0A3
:100790008EE190E0821B930B29853A854B855C8521
:1007A00004C056954795379527958A95D2F76623C5
:1007B000B1F050954095309521953F4F4F4F5F4F89
:1007C0000EC020E030E040E050E009C02FEF3FEFE6
:1007D0004FEF5FE704C020E030E040E050E8B901AF
:1007E000CA012C96E2E00C947729DF92EF92FF92F7
:1007F0000F931F93FC01E480F58006811781D1805F
:100800008081823048F480E090E0A0E1B0E0E82A06
:10081000F92A0A2B1B2BA5C0843009F49FC0823013
:1008200021F4EE24FF24870105C0E114F104010541
:10083000110519F4E0E0F0E096C0628173819FEF4A
:10084000623879070CF05BC022E83FEF261B370BBC
:100850002A3131052CF020E030E040E050E02AC0A1
:10086000B801A701022E04C0769567955795479564
:100870000A94D2F781E090E0A0E0B0E004C0880FD5
:10088000991FAA1FBB1F2A95D2F70197A109B10989
:100890008E219F21A023B1230097A105B10521F04E
:1008A00081E090E0A0E0B0E09A01AB01282B392B69
:1008B0004A2B5B2BDA01C9018F779070A070B07062
:1008C00080349105A105B10539F427FF09C0205CEA
:1008D0003F4F4F4F5F4F04C0215C3F4F4F4F5F4F23
:1008E000E0E0F0E02030A0E03A07A0E04A07A0E412
:1008F0005A0710F0E1E0F0E079018A0127C0603882
:10090000710564F5FB01E158FF4FD801C7018F77EE
:100910009070A070B07080349105A105B10539F4D4
:10092000E7FE0DC080E490E0A0E0B0E004C08FE3FB
:1009300090E0A0E0B0E0E80EF91E0A1F1B1F17FFB1
:1009400005C016950795F794E794319687E01695BC
:100950000795F794E7948A95D1F705C0EE24FF2414
:100960008701EFEFF0E06E2F679566276795902F70
:100970009F77D794DD24D7948E2F8695492F462BC9
:10098000582F5D29B701CA011F910F91FF90EF9079
:10099000DF900895FC01DB01408151812281622FAB
:1009A0006F7770E0221F2227221F9381892F880FE3
:1009B000822B282F30E0991F9927991F11969C931D
:1009C000119721153105A9F54115510561057105ED
:1009D00011F482E037C082E89FEF13969C938E93C8
:1009E00012979A01AB0167E0220F331F441F551F76
:1009F0006A95D1F783E08C930DC0220F331F441FFB
:100A0000551F12968D919C911397019713969C9365
:100A10008E931297203080E0380780E0480780E40A
:100A2000580758F314962D933D934D935C93179765
:100A300008952F3F310579F4411551056105710580
:100A400019F484E08C93089564FF03C081E08C93D3
:100A500012C01C9210C02F57304013963C932E9317
:100A6000129783E08C9387E0440F551F661F771F12
:100A70008A95D1F7706414964D935D936D937C9332
:100A8000179708951F93DC01FB019C91923008F4A5
:100A900047C08081823008F443C0943051F41196ED
:100AA0001C91843099F58181682F70E0611B710978
:100AB0003FC0843021F0923031F48230B9F181812D
:100AC000882389F12DC011961C9111978230F1F085
:100AD00081811817D9F412962D913C911397828138
:100AE00093818217930794F028173907BCF0149666
:100AF0008D919D910D90BC91A02D248135814681D1
:100B00005781281739074A075B0718F4112341F06A
:100B10000AC082179307A407B50740F4112319F000
:100B200061E070E005C06FEF7FEF02C060E070E051
:100B3000CB011F910895DF93CF93CDB7DEB72797F1
:100B40000FB6F894DEBF0FBECDBF89836A834B8397
:100B50008B81813009F06FC08981282F30E03F837D
:100B60002E838E819F818130910549F12E813F81B5
:100B7000223031052CF48E819F81009761F0D2C024
:100B80002E813F812230310571F18E819F8183302A
:100B90009105E9F1C7C0ABE3B0E0EBE3F0E08081A1
:100BA000482F8A81282F30E081E090E0022E02C099
:100BB000880F991F0A94E2F7842B8C93B3C0A8E3A3
:100BC000B0E0E8E3F0E08081482F8A81282F30E010
:100BD00081E090E0022E02C0880F991F0A94E2F78C
:100BE000842B8C939FC0A5E3B0E0E5E3F0E0808127
:100BF000482F8A81282F30E081E090E0022E02C049
:100C0000880F991F0A94E2F7842B8C938BC0A2E380
:100C1000B0E0E2E3F0E08081482F8A81282F30E0C5
:100C200081E090E0022E02C0880F991F0A94E2F73B
:100C3000842B8C9377C08B81882309F073C08981C2
:100C4000282F30E03D832C838C819D81813091055C
:100C500059F12C813D81223031052CF48C819D810C
:100C6000009769F05FC02C813D812230310589F108
:100C70008C819D818330910509F440C053C0ABE362
:100C8000B0E0EBE3F0E08081482F8A81282F30E04C
:100C900081E090E0022E02C0880F991F0A94E2F7CB
:100CA000809584238C933EC0A8E3B0E0E8E3F0E0B5
:100CB0008081482F8A81282F30E081E090E0022E49
:100CC00002C0880F991F0A94E2F7809584238C93C1
:100CD00029C0A5E3B0E0E5E3F0E08081482F8A81F8
:100CE000282F30E081E090E0022E02C0880F991F8B
:100CF0000A94E2F7809584238C9314C0A2E3B0E0B9
:100D0000E2E3F0E08081482F8A81282F30E081E003
:100D100090E0022E02C0880F991F0A94E2F7809596
:100D200084238C9327960FB6F894DEBF0FBECDBFF9
:100D3000CF91DF910895DF93CF9300D000D00F9231
:100D4000CDB7DEB78A836B838A81282F30E03D835D
:100D50002C834C815D814130510541F18C819D8115
:100D60008230910534F42C813D812115310561F0EB
:100D700052C04C815D814230510551F18C819D8181
:100D800083309105B9F147C0E9E3F0E08081282F75
:100D900030E08B81882F90E0A90102C055954795DE
:100DA0008A95E2F7CA018170898335C0E6E3F0E0F5
:100DB0008081282F30E08B81882F90E0A90102C02C
:100DC000559547958A95E2F7CA018170898323C0BA
:100DD000E3E3F0E08081282F30E08B81882F90E0E2
:100DE000A90102C0559547958A95E2F7CA0181701D
:100DF000898311C0E0E3F0E08081282F30E08B810F
:100E0000882F90E0A90102C0559547958A95E2F791
:100E1000CA018170898389810F900F900F900F9084
:100E20000F90CF91DF910895DF93CF93CDB7DEB7C9
:100E300027970FB6F894DEBF0FBECDBF89836A83B4
:100E40004B838B81813009F06FC08981282F30E07E
:100E50003F832E838E819F818130910549F12E81C0
:100E60003F81223031052CF48E819F81009761F003
:100E7000D2C02E813F812230310571F18E819F8158
:100E800083309105E9F1C7C0AAE3B0E0EAE3F0E0FE
:100E90008081482F8A81282F30E081E090E0022E67
:100EA00002C0880F991F0A94E2F7842B8C93B3C079
:100EB000A7E3B0E0E7E3F0E08081482F8A81282FA4
:100EC00030E081E090E0022E02C0880F991F0A9462
:100ED000E2F7842B8C939FC0A4E3B0E0E4E3F0E05E
:100EE0008081482F8A81282F30E081E090E0022E17
:100EF00002C0880F991F0A94E2F7842B8C938BC051
:100F0000A1E3B0E0E1E3F0E08081482F8A81282F5F
:100F100030E081E090E0022E02C0880F991F0A9411
:100F2000E2F7842B8C9377C08B81882309F073C000
:100F30008981282F30E03D832C838C819D818130F5
:100F4000910559F12C813D81223031052CF48C81A1
:100F50009D81009769F05FC02C813D812230310571
:100F600089F18C819D818330910509F440C053C083
:100F7000AAE3B0E0EAE3F0E08081482F8A81282FDD
:100F800030E081E090E0022E02C0880F991F0A94A1
:100F9000E2F7809584238C933EC0A7E3B0E0E7E3BB
:100FA000F0E08081482F8A81282F30E081E090E0B6
:100FB000022E02C0880F991F0A94E2F780958423BD
:100FC0008C9329C0A4E3B0E0E4E3F0E08081482FF3
:100FD0008A81282F30E081E090E0022E02C0880F45
:100FE000991F0A94E2F7809584238C9314C0A1E39F
:100FF000B0E0E1E3F0E08081482F8A81282F30E0E3
:1010000081E090E0022E02C0880F991F0A94E2F757
:10101000809584238C9327960FB6F894DEBF0FBE7D
:10102000CDBFCF91DF910895DF93CF9300D000D053
:10103000CDB7DEB789836A838981282F30E03C836E
:101040002B838B819C8181309105D1F02B813C8158
:10105000223031052CF48B819C81009761F01EC0F9
:101060002B813C812230310581F08B819C81833042
:10107000910581F013C0EAE3F0E08A8180830EC01D
:10108000E7E3F0E08A81808309C0E4E3F0E08A814D
:10109000808304C0E1E3F0E08A8180830F900F90A9
:1010A0000F900F90CF91DF910895DF93CF9300D0F1
:1010B00000D0CDB7DEB789836A838981282F30E0DD
:1010C0003C832B838B819C8181309105D1F02B81D6
:1010D0003C81223031052CF48B819C81009761F09A
:1010E0001EC02B813C812230310581F08B819C8197
:1010F0008330910581F013C0EBE3F0E08A818083B7
:101100000EC0E8E3F0E08A81808309C0E5E3F0E007
:101110008A81808304C0E2E3F0E08A8180830F90BB
:101120000F900F900F90CF91DF910895DF93CF93A1
:1011300000D000D0CDB7DEB78A836B838A816B8104
:101140000E949B0689831C828981882311F481E097
:101150008C838A816B814C810E949B050F900F903C
:101160000F900F90CF91DF910895DF93CF93CDB77C
:10117000DEB70E94B809CF91DF910895DF93CF9336
:1011800000D000D000D0CDB7DEB79C838B836D83B9
:101190001A8219820E94D5090E942D0A8A838A81A7
:1011A000883011F01E822FC08B819C8180709770D7
:1011B000880F892F881F990B9195898380EA0E9457
:1011C000F0090E942D0A8A838A81883111F01E82DB
:1011D0001AC08B810E94F0090E942D0A8A838A819D
:1011E000883211F01E820FC08D810E94F0090E948A
:1011F0002D0A8A838A81883211F01E8204C00E94DF
:10120000E50981E08E838E8126960FB6F894DEBFC5
:101210000FBECDBFCF91DF9108950F931F93DF9342
:10122000CF93CDB7DEB72B970FB6F894DEBF0FBEC6
:10123000CDBF9E838D8378876F835A8749871C82B1
:101240001B820E94D5090E942D0A8C838C818830D4
:1012500011F01B8681C08D819E8180709770880FF0
:10126000892F881F990B91958B8380EA0E94F00942
:101270000E942D0A8C838C81883111F01B866CC0F2
:101280008D810E94F0090E942D0A8C838C81883206
:1012900011F01B8661C00E94D5090E942D0A8C8323
:1012A0008C81803111F01B8657C08D819E818070AA
:1012B0009770880F892F881F990B91958B8381EAEE
:1012C0000E94F0090E942D0A8C838C81803411F0D9
:1012D0001B8642C01A82198234C089819A8129856D
:1012E0003A85215030408217930799F429813A8139
:1012F0008F8198858C01020F131F0E941A0AF80132
:1013000080830E942D0A8C838C818835A9F01B86EE
:1013100023C029813A818F8198858C01020F131F88
:101320000E94070AF80180830E942D0A8C838C8119
:10133000803511F01B8610C089819A8101969A83AD
:10134000898329813A8189859A852817390728F266
:101350000E94E509F1E0FB878B852B960FB6F89488
:10136000DEBF0FBECDBFCF91DF911F910F910895CA
:10137000DF93CF93CDB7DEB7E0E2F0E088E480837F
:10138000E2E2F0E082E08083E6E5F0E084E480835E
:10139000E1E2F0E01082A1E2B0E0E1E2F0E0808181
:1013A0008C7F8C93CF91DF910895DF93CF93CDB74E
:1013B000DEB7E6E5F0E084EA8083E6E5F0E08081F0
:1013C0008823DCF7CF91DF910895DF93CF93CDB7DA
:1013D000DEB7E6E5F0E084E98083CF91DF91089500
:1013E000DF93CF930F92CDB7DEB78983E3E2F0E0CE
:1013F00089818083E6E5F0E084E88083E6E5F0E03B
:1014000080818823DCF70F90CF91DF910895DF93DF
:10141000CF93CDB7DEB7E6E5F0E084EC8083E6E578
:10142000F0E080818823DCF7E3E2F0E08081CF9177
:10143000DF910895DF93CF93CDB7DEB7E6E5F0E017
:1014400084E88083E6E5F0E080818823DCF7E3E24E
:10145000F0E08081CF91DF910895DF93CF930F92D9
:10146000CDB7DEB7E1E2F0E08081887F89838981B2
:101470000F90CF91DF9108950F931F93DF93CF9338
:10148000CDB7DEB7C455D0400FB6F894DEBF0FBE5F
:10149000CDBF80E06FEF0E94140881E061E041E081
:1014A0000E94140781E062E041E00E94140781E09D
:1014B00060E041E00E941407FE01EF5AFF4F80E018
:1014C00090E0A0EFB1E480839183A283B3838E0187
:1014D000035B1F4FFE01EF5AFF4F608171818281D4
:1014E000938120E030E04AEF54E40E941702DC01CF
:1014F000CB01F80180839183A283B383FE01E35B78
:10150000FF4F608171818281938120E030E040E86B
:101510005FE30E947103882344F4FE01E55BFF4F03
:1015200081E090E09183808364C0FE01E35BFF4F24
:10153000608171818281938120E03FEF4FE757E422
:101540000E94110318160CF043C0FE01EF5AFF4F22
:10155000608171818281938120E030E040E251E43A
:101560000E941702DC01CB018E01055B1F4FBC01FD
:10157000CD010E944100DC01CB01F8019183808301
:101580001FC0FE01E75BFF4F88EC90E091838083F2
:10159000FE01E75BFF4F808191810197F1F7FE012A
:1015A000E75BFF4F91838083DE01A55BBF4FFE01A8
:1015B000E55BFF4F80819181019711969C938E93FB
:1015C000FE01E55BFF4F808191810097D1F627C036
:1015D0008E01055B1F4FFE01E35BFF4F6081718150
:1015E000828193810E944100DC01CB01F80191834B
:1015F0008083DE01A95BBF4FFE01E55BFF4F808169
:1016000091818D939C93FE01E95BFF4F80819181D5
:101610000197F1F7FE01E95BFF4F9183808388E337
:101620000E94770DFE01ED5BFF4F80E090E0A0E7A8
:10163000B1E480839183A283B3838E01015C1F4F49
:10164000FE01ED5BFF4F608171818281938120E01B
:1016500030E04AEF54E40E941702DC01CB01F801AC
:1016600080839183A283B383FE01FF9660817181A1
:101670008281938120E030E040E85FE30E947103C3
:1016800088232CF481E090E09EAF8DAF46C0FE0130
:10169000FF96608171818281938120E03FEF4FE767
:1016A00057E40E941103181664F5FE01ED5BFF4F2D
:1016B000608171818281938120E030E040E251E4D9
:1016C0000E941702DC01CB01BC01CD010E94410048
:1016D000DC01CB019EAF8DAF0FC088EC90E09CAFDA
:1016E0008BAF8BAD9CAD0197F1F79CAF8BAF8DAD00
:1016F0009EAD01979EAF8DAF8DAD9EAD009769F702
:1017000016C0FE01FF9660817181828193810E94E3
:101710004100DC01CB019EAF8DAF8DAD9EAD9AAF88
:1017200089AF89AD9AAD0197F1F79AAF89AF82E0A1
:101730000E94770D80E090E0A0E7B1E48DAB9EAB16
:10174000AFABB8AF6DA97EA98FA998AD20E030E00E
:101750004AEF54E40E941702DC01CB0189AB9AAB3B
:10176000ABABBCAB69A97AA98BA99CA920E030E0FE
:1017700040E85FE30E94710388232CF481E090E04D
:1017800098AB8FA73FC069A97AA98BA99CA920E033
:101790003FEF4FE757E40E94110318164CF56DA96F
:1017A0007EA98FA998AD20E030E040E251E40E948C
:1017B0001702DC01CB01BC01CD010E944100DC011C
:1017C000CB0198AB8FA70FC088EC90E09EA78DA7A8
:1017D0008DA59EA50197F1F79EA78DA78FA598A926
:1017E000019798AB8FA78FA598A9009769F714C0A8
:1017F00069A97AA98BA99CA90E944100DC01CB01AF
:1018000098AB8FA78FA598A99CA78BA78BA59CA504
:101810000197F1F79CA78BA78CE00E94770D80E0E1
:1018200090E0A0E8BFE38FA398A7A9A7BAA76FA1EC
:1018300078A589A59AA520E030E04AEF54E40E94FB
:101840001702DC01CB018BA39CA3ADA3BEA36BA1AC
:101850007CA18DA19EA120E030E040E85FE30E94E2
:10186000710388232CF481E090E09AA389A33FC000
:101870006BA17CA18DA19EA120E03FEF4FE757E433
:101880000E94110318164CF56FA178A589A59AA599
:1018900020E030E040E251E40E941702DC01CB017D
:1018A000BC01CD010E944100DC01CB019AA389A3B8
:1018B0000FC088EC90E098A38F8F8F8D98A101972F
:1018C000F1F798A38F8F89A19AA101979AA389A371
:1018D00089A19AA1009769F714C06BA17CA18DA181
:1018E0009EA10E944100DC01CB019AA389A389A19A
:1018F0009AA19E8F8D8F8D8D9E8D0197F1F79E8F72
:101900008D8F81E00E94770D80E090E0A0E7B1E448
:10191000898F9A8FAB8FBC8F698D7A8D8B8D9C8DC3
:1019200020E030E04AEF54E40E941702DC01CB01D2
:101930008D8B9E8BAF8BB88F6D897E898F89988DAB
:1019400020E030E040E85FE30E94710388232CF43C
:1019500081E090E09C8B8B8B3FC06D897E898F8965
:10196000988D20E03FEF4FE757E40E9411031816CF
:101970004CF5698D7A8D8B8D9C8D20E030E040E2B6
:1019800051E40E941702DC01CB01BC01CD010E9491
:101990004100DC01CB019C8B8B8B0FC088EC90E06D
:1019A0009A8B898B89899A890197F1F79A8B898B10
:1019B0008B899C8901979C8B8B8B8B899C89009749
:1019C00069F714C06D897E898F89988D0E944100C6
:1019D000DC01CB019C8B8B8B8B899C89988B8F87AF
:1019E0008F8598890197F1F7988B8F8786E00E9401
:1019F000770D80E090E0A0E0B0E48B879C87AD8716
:101A0000BE876B857C858D859E8520E030E04AEF22
:101A100054E40E941702DC01CB018F839887A987C9
:101A2000BA876F81788589859A8520E030E040E823
:101A30005FE30E94710388232CF481E090E09E8391
:101A40008D833FC06F81788589859A8520E03FEF3F
:101A50004FE757E40E94110318164CF56B857C85FF
:101A60008D859E8520E030E040E251E40E9417021F
:101A7000DC01CB01BC01CD010E944100DC01CB01A6
:101A80009E838D830FC088EC90E09C838B838B8139
:101A90009C810197F1F79C838B838D819E810197B7
:101AA0009E838D838D819E81009769F714C06F811D
:101AB000788589859A850E944100DC01CB019E834F
:101AC0008D838D819E819A83898389819A810197F3
:101AD000F1F79A838983CC5ADF4F0FB6F894DEBFB3
:101AE0000FBECDBFCF91DF911F910F910895DF936E
:101AF000CF93CDB7DEB76D970FB6F894DEBF0FBEAC
:101B0000CDBF8D8F81E061E040E00E949B0581E0C8
:101B100062E040E00E949B0581E060E041E00E94BD
:101B20009B0580E06D8D0E94550881E060E040E0FB
:101B30000E949B0580E090E0A0EAB0E4898F9A8F34
:101B4000AB8FBC8F698D7A8D8B8D9C8D20E030E0C2
:101B50004AEF54E40E941702DC01CB018D8B9E8B6F
:101B6000AF8BB88F6D897E898F89988D20E030E0AA
:101B700040E85FE30E94710388232CF481E090E049
:101B80009C8B8B8B3FC06D897E898F89988D20E0DF
:101B90003FEF4FE757E40E94110318164CF5698D8B
:101BA0007A8D8B8D9C8D20E030E040E251E40E94E4
:101BB0001702DC01CB01BC01CD010E944100DC0118
:101BC000CB019C8B8B8B0FC088EC90E09A8B898B20
:101BD00089899A890197F1F79A8B898B8B899C89DE
:101BE00001979C8B8B8B8B899C89009769F714C01C
:101BF0006D897E898F89988D0E944100DC01CB011F
:101C00009C8B8B8B8B899C89988B8F878F859889F0
:101C10000197F1F7988B8F8780E090E0A0E2B1E424
:101C20008B879C87AD87BE876B857C858D859E85E0
:101C300020E030E04AEF54E40E941702DC01CB01BF
:101C40008F839887A987BA876F81788589859A85D8
:101C500020E030E040E85FE30E94710388232CF429
:101C600081E090E09E838D833FC06F817885898578
:101C70009A8520E03FEF4FE757E40E9411031816C2
:101C80004CF56B857C858D859E8520E030E040E2BB
:101C900051E40E941702DC01CB01BC01CD010E947E
:101CA0004100DC01CB019E838D830FC088EC90E066
:101CB0009C838B838B819C810197F1F79C838B8321
:101CC0008D819E8101979E838D838D819E8100975A
:101CD00069F714C06F81788589859A850E944100D3
:101CE000DC01CB019E838D838D819E819A838983C4
:101CF00089819A810197F1F79A8389836D960FB64E
:101D0000F894DEBF0FBECDBFCF91DF910895DF9372
:101D1000CF93CDB7DEB76D970FB6F894DEBF0FBE89
:101D2000CDBF8D8F81E061E041E00E949B0581E0A5
:101D300062E040E00E949B0581E060E041E00E949B
:101D40009B0580E06D8D0E94550881E060E040E0D9
:101D50000E949B0580E090E0A0EAB0E4898F9A8F12
:101D6000AB8FBC8F698D7A8D8B8D9C8D20E030E0A0
:101D70004AEF54E40E941702DC01CB018D8B9E8B4D
:101D8000AF8BB88F6D897E898F89988D20E030E088
:101D900040E85FE30E94710388232CF481E090E027
:101DA0009C8B8B8B3FC06D897E898F89988D20E0BD
:101DB0003FEF4FE757E40E94110318164CF5698D69
:101DC0007A8D8B8D9C8D20E030E040E251E40E94C2
:101DD0001702DC01CB01BC01CD010E944100DC01F6
:101DE000CB019C8B8B8B0FC088EC90E09A8B898BFE
:101DF00089899A890197F1F79A8B898B8B899C89BC
:101E000001979C8B8B8B8B899C89009769F714C0F9
:101E10006D897E898F89988D0E944100DC01CB01FC
:101E20009C8B8B8B8B899C89988B8F878F859889CE
:101E30000197F1F7988B8F8780E090E0A0E2B1E402
:101E40008B879C87AD87BE876B857C858D859E85BE
:101E500020E030E04AEF54E40E941702DC01CB019D
:101E60008F839887A987BA876F81788589859A85B6
:101E700020E030E040E85FE30E94710388232CF407
:101E800081E090E09E838D833FC06F817885898556
:101E90009A8520E03FEF4FE757E40E9411031816A0
:101EA0004CF56B857C858D859E8520E030E040E299
:101EB00051E40E941702DC01CB01BC01CD010E945C
:101EC0004100DC01CB019E838D830FC088EC90E044
:101ED0009C838B838B819C810197F1F79C838B83FF
:101EE0008D819E8101979E838D838D819E81009738
:101EF00069F714C06F81788589859A850E944100B1
:101F0000DC01CB019E838D838D819E819A838983A1
:101F100089819A810197F1F79A8389836D960FB62B
:101F2000F894DEBF0FBECDBFCF91DF9108950F9320
:101F30001F93DF93CF93CDB7DEB76A970FB6F894B0
:101F4000DEBF0FBECDBF6F8B788F898F9A8F8F8941
:101F5000988DA98DBA8D0097A105B10521F480E374
:101F60000E94870E51C08FEF9FEF9A8389832FC005
:101F700089819A8101969A83898309811A818F893F
:101F8000988DA98DBA8D2AE030E040E050E0BC0188
:101F9000CD010E942929DC01CB01282F205DCE0133
:101FA0000396FC01E00FF11F20838F89988DA98D86
:101FB000BA8D2AE030E040E050E0BC01CD010E9443
:101FC0002929DA01C9018F8B988FA98FBA8F8F8940
:101FD000988DA98DBA8D0097A105B10549F610C05D
:101FE00029813A81CE010396FC01E20FF31F208183
:101FF00089819A8101979A838983822F0E94870E13
:1020000089819A81992364F76A960FB6F894DEBFA6
:102010000FBECDBFCF91DF911F910F910895DF9338
:10202000CF93CDB7DEB781E00E94770DCF91DF91DE
:102030000895DF93CF930F92CDB7DEB7898380E405
:102040000E94770D84E00E94870E84E00E94870E34
:102050008EE00E94870E85E10E94870E84E00E9438
:10206000870E8AE00E94870E81E10E94870E81E13F
:102070000E94870E83E00E94870E86E00E94870EF2
:102080008CE10E94870E8CE00E94870E80E00E9407
:10209000870E80E00E94870E80E00E94870E80E01D
:1020A0000E94870E84E20E94870E84E20E94870EBF
:1020B0008FE00E94870E84E10E94870E84E00E94D8
:1020C000870E8AE00E94870E81E10E94870E81E1DF
:1020D0000E94870E84E00E94870E84E00E94870E93
:1020E0008EE10E94870E85E00E94870E84E00E94A8
:1020F000870E8AE00E94870E81E10E94870E81E1AF
:102100000E94870E88E10E94870E8CE00E94870E55
:1021100087E00E94870E86E00E94870E80E00E9482
:10212000870E80E00E94870E80E00E94870E80E08C
:102130000E94870E0F90CF91DF910895DF93CF9388
:1021400000D0CDB7DEB789836A838981882329F4DB
:102150008A8180580E94770D04C08A8180540E9431
:10216000770D0F900F90CF91DF910895DF93CF936C
:10217000CDB7DEB762970FB6F894DEBF0FBECDBF06
:10218000998B888B6A8B1F861F8680C08F85282F2E
:1021900030E088899989FC01E20FF31F80810E9459
:1021A000870E80E090E0A0E0B0E48B879C87AD874D
:1021B000BE876B857C858D859E8520E030E04AEF6B
:1021C00054E40E941702DC01CB018F839887A98712
:1021D000BA876F81788589859A8520E030E040E86C
:1021E0005FE30E94710388232CF481E090E09E83DA
:1021F0008D833FC06F81788589859A8520E03FEF88
:102200004FE757E40E94110318164CF56B857C8547
:102210008D859E8520E030E040E251E40E94170267
:10222000DC01CB01BC01CD010E944100DC01CB01EE
:102230009E838D830FC088EC90E09C838B838B8181
:102240009C810197F1F79C838B838D819E810197FF
:102250009E838D838D819E81009769F714C06F8165
:10226000788589859A850E944100DC01CB019E8397
:102270008D838D819E819A83898389819A8101973B
:10228000F1F79A8389838F858F5F8F879F858A89EE
:10229000981708F47BCF62960FB6F894DEBF0FBE96
:1022A000CDBFCF91DF910895DF93CF9300D000D0C1
:1022B000CDB7DEB789836A838A818823E1F08A817A
:1022C0008131C8F48981282F30E03C832B838B81B6
:1022D0009C818130910531F02B813C812230310588
:1022E00031F009C08A8181580E94770D04C08A812B
:1022F00081540E94770D0F900F900F900F90CF9107
:10230000DF910895DF93CF93CDB7DEB762970FB615
:10231000F894DEBF0FBECDBF898B6A8B80E40E942C
:10232000770D188A0CC08889882F90E0FC01E6554B
:10233000FE4F80810E94870E88898F5F888B8889F5
:10234000803488F380E80E94770D89896A890E9429
:1023500054111F8678C08F850E94870E80E090E020
:10236000A0EAB0E48B879C87AD87BE876B857C85B0
:102370008D859E8520E030E04AEF54E40E941702EC
:10238000DC01CB018F839887A987BA876F81788515
:1023900089859A8520E030E040E85FE30E94710380
:1023A00088232CF481E090E09E838D833FC06F8171
:1023B000788589859A8520E03FEF4FE757E40E94B2
:1023C000110318164CF56B857C858D859E8520E064
:1023D00030E040E251E40E941702DC01CB01BC0175
:1023E000CD010E944100DC01CB019E838D830FC093
:1023F00088EC90E09C838B838B819C810197F1F723
:102400009C838B838D819E8101979E838D838D819B
:102410009E81009769F714C06F81788589859A85B8
:102420000E944100DC01CB019E838D838D819E81C2
:102430009A83898389819A810197F1F79A838983A5
:102440008F858F5F8F878F85883008F484CF629661
:102450000FB6F894DEBF0FBECDBFCF91DF910895C8
:10246000DF93CF93CDB7DEB7E0E4F0E086E880837A
:10247000E9E2F0E083E38083E0E4F0E01082EAE266
:10248000F0E088E18083CF91DF910895DF93CF93CF
:102490000F92CDB7DEB78983EBE2F0E080818295C1
:1024A00086958770882F90E0817090700097A1F3D7
:1024B000ECE2F0E0898180830F90CF91DF91089565
:1024C000DF93CF93CDB7DEB7EBE2F0E080818823D6
:1024D000DCF7ECE2F0E08081CF91DF910895DF93AB
:1024E000CF93CDB7DEB760970FB6F894DEBF0FBEBF
:1024F000CDBF988B8F877CC0EF85F88980810E9443
:1025000046128F8598890196988B8F8780E090E09E
:10251000A8ECB2E48B879C87AD87BE876B857C85F2
:102520008D859E8520E030E04AEF54E40E9417023A
:10253000DC01CB018F839887A987BA876F81788563
:1025400089859A8520E030E040E85FE30E947103CE
:1025500088232CF481E090E09E838D833FC06F81BF
:10256000788589859A8520E03FEF4FE757E40E9400
:10257000110318164CF56B857C858D859E8520E0B2
:1025800030E040E251E40E941702DC01CB01BC01C3
:10259000CD010E944100DC01CB019E838D830FC0E1
:1025A00088EC90E09C838B838B819C810197F1F771
:1025B0009C838B838D819E8101979E838D838D81EA
:1025C0009E81009769F714C06F81788589859A8507
:1025D0000E944100DC01CB019E838D838D819E8111
:1025E0009A83898389819A810197F1F79A838983F4
:1025F000EF85F8898081882309F07ECF60960FB639
:10260000F894DEBF0FBECDBFCF91DF910895DF9369
:10261000CF93CDB7DEB76E970FB6F894DEBF0FBE7F
:10262000CDBF0E9430120E94B50883E060E040E018
:102630000E94140783E061E041E00E94140781E0FA
:1026400065E041E00E94140781E066E041E00E94FD
:10265000140781E063E041E00E94140781E064E038
:1026600041E00E9414070E943C0A80E690E060E18D
:102670000E94B61081E060E00E949E1081E790E029
:102680006BE00E94B61080E090E0AAE7B4E4898F86
:102690009A8FAB8FBC8F698D7A8D8B8D9C8D20E04E
:1026A00030E04AEF54E40E941702DC01CB018D8B2D
:1026B0009E8BAF8BB88F6D897E898F89988D20E036
:1026C00030E040E85FE30E94710388232CF481E04E
:1026D00090E09C8B8B8B3FC06D897E898F89988D14
:1026E00020E03FEF4FE757E40E94110318164CF526
:1026F000698D7A8D8B8D9C8D20E030E040E251E435
:102700000E941702DC01CB01BC01CD010E944100F7
:10271000DC01CB019C8B8B8B0FC088EC90E09A8BFB
:10272000898B89899A890197F1F79A8B898B8B8993
:102730009C8901979C8B8B8B8B899C89009769F76F
:1027400014C06D897E898F89988D0E944100DC01BB
:10275000CB019C8B8B8B8B899C89988B8F878F85EA
:1027600098890197F1F7988B8F870E940F101E8E22
:102770000E94E3158E8F8E8D882309F495C08DE716
:1027800090E06FE00E94B61081E060E00E949E1031
:102790008DE890E060E10E94B6100E9460128D8F7B
:1027A0008D8D0E94870E80E090E0AAE7B4E48B87CD
:1027B0009C87AD87BE876B857C858D859E8520E057
:1027C00030E04AEF54E40E941702DC01CB018F8312
:1027D0009887A987BA876F81788589859A8520E04F
:1027E00030E040E85FE30E94710388232CF481E02D
:1027F00090E09E838D833FC06F81788589859A851F
:1028000020E03FEF4FE757E40E94110318164CF504
:102810006B857C858D859E8520E030E040E251E42B
:102820000E941702DC01CB01BC01CD010E944100D6
:10283000DC01CB019E838D830FC088EC90E09C83EC
:102840008B838B819C810197F1F79C838B838D8196
:102850009E8101979E838D838D819E81009769F76C
:1028600014C06F81788589859A850E944100DC01BA
:10287000CB019E838D838D819E819A8389838981FB
:102880009A810197F1F79A8389830E940F108D8DA9
:10289000813319F40E945F1472CF8D8D803309F05B
:1028A0006ECF0E94F8146BCF80E090E06E960FB66A
:1028B000F894DEBF0FBECDBFCF91DF910895DF93B7
:1028C000CF93CDB7DEB72E970FB6F894DEBF0FBE0D
:1028D000CDBF81E065E041E00E949B0581E066E0BC
:1028E00040E00E949B0580E090E0AAEFB3E48B8774
:1028F0009C87AD87BE876B857C858D859E8520E016
:1029000030E04AEF54E40E941702DC01CB018F83D0
:102910009887A987BA876F81788589859A8520E00D
:1029200030E040E85FE30E94710388232CF481E0EB
:1029300090E09E838D833FC06F81788589859A85DD
:1029400020E03FEF4FE757E40E94110318164CF5C3
:102950006B857C858D859E8520E030E040E251E4EA
:102960000E941702DC01CB01BC01CD010E94410095
:10297000DC01CB019E838D830FC088EC90E09C83AB
:102980008B838B819C810197F1F79C838B838D8155
:102990009E8101979E838D838D819E81009769F72B
:1029A00014C06F81788589859A850E944100DC0179
:1029B000CB019E838D838D819E819A8389838981BA
:1029C0009A810197F1F79A83898381E065E040E07D
:1029D0000E949B0581E066E040E00E949B052E96E8
:1029E0000FB6F894DEBF0FBECDBFCF91DF91089533
:1029F000DF93CF93CDB7DEB72E970FB6F894DEBF37
:102A00000FBECDBF81E065E040E00E949B0581E004
:102A100066E041E00E949B0580E090E0AAEFB3E40D
:102A20008B879C87AD87BE876B857C858D859E85D2
:102A300020E030E04AEF54E40E941702DC01CB01B1
:102A40008F839887A987BA876F81788589859A85CA
:102A500020E030E040E85FE30E94710388232CF41B
:102A600081E090E09E838D833FC06F81788589856A
:102A70009A8520E03FEF4FE757E40E9411031816B4
:102A80004CF56B857C858D859E8520E030E040E2AD
:102A900051E40E941702DC01CB01BC01CD010E9470
:102AA0004100DC01CB019E838D830FC088EC90E058
:102AB0009C838B838B819C810197F1F79C838B8313
:102AC0008D819E8101979E838D838D819E8100974C
:102AD00069F714C06F81788589859A850E944100C5
:102AE000DC01CB019E838D838D819E819A838983B6
:102AF00089819A810197F1F79A83898381E065E062
:102B000040E00E949B0581E066E040E00E949B055A
:102B10002E960FB6F894DEBF0FBECDBFCF91DF91DA
:102B20000895DF93CF93CDB7DEB781E063E041E056
:102B30000E949B05CF91DF910895DF93CF93CDB78E
:102B4000DEB781E063E040E00E949B05CF91DF911A
:102B50000895DF93CF93CDB7DEB781E064E041E025
:102B60000E949B05CF91DF910895DF93CF93CDB75E
:102B7000DEB781E064E040E00E949B05CF91DF91E9
:102B80000895DF93CF93CDB7DEB781E067E041E0F2
:102B90000E94140781E067E041E00E949B05CF910D
:102BA000DF910895DF93CF93CDB7DEB781E067E083
:102BB00040E00E94140781E067E040E00E949B052E
:102BC000CF91DF9108950F931F93DF93CF93CDB7EC
:102BD000DEB7C75BD1400FB6F894DEBF0FBECDBFE6
:102BE0000E9430120E94B5080E943C0AFE01EF5A72
:102BF000FE4F1182108280EA90E06EE00E94B610D3
:102C000081E060E00E949E108FEA90E06DE00E94FB
:102C1000B610FE01E05BFE4F83E2808306C00E9497
:102C20006012FE01E05BFE4F8083FE01E05BFE4F21
:102C300080818332A1F3FE01E05BFE4F80810E9420
:102C4000870EFE01EF5CFE4F80E090E0A8E4B3E465
:102C500080839183A283B3838E01035D1E4FFE01A7
:102C6000EF5CFE4F608171818281938120E030E0D2
:102C70004AEF54E40E941702DC01CB01F801808383
:102C80009183A283B383FE01E35DFE4F6081718176
:102C90008281938120E030E040E85FE30E9471038D
:102CA000882344F4FE01E55DFE4F81E090E09183CE
:102CB000808364C0FE01E35DFE4F6081718182818B
:102CC000938120E03FEF4FE757E40E94110318166D
:102CD0000CF043C0FE01EF5CFE4F60817181828188
:102CE000938120E030E040E251E40E941702DC01D1
:102CF000CB018E01055D1E4FBC01CD010E9441003C
:102D0000DC01CB01F801918380831FC0FE01E75DE8
:102D1000FE4F88EC90E091838083FE01E75DFE4FDB
:102D2000808191810197F1F7FE01E75DFE4F91836C
:102D30008083DE01A55DBE4FFE01E55DFE4F808113
:102D40009181019711969C938E93FE01E55DFE4F54
:102D5000808191810097D1F627C08E01055D1E4FBD
:102D6000FE01E35DFE4F60817181828193810E944B
:102D70004100DC01CB01F80191838083DE01A95D74
:102D8000BE4FFE01E55DFE4F808191818D939C9346
:102D9000FE01E95DFE4F808191810197F1F7FE010F
:102DA000E95DFE4F918380830E940F10FE01E05B7E
:102DB000FE4F8081803311F00C94551F9E012D5AD7
:102DC0003E4F81E090E0B90141E00E940D09FE0113
:102DD000ED5DFE4F80E090E0A8ECB2E4808391834B
:102DE000A283B3838E01015E1E4FFE01ED5DFE4F97
:102DF000608171818281938120E030E04AEF54E468
:102E00000E941702DC01CB01F80180839183A28329
:102E1000B383FE01E15EFE4F608171818281938107
:102E200020E030E040E85FE30E947103882344F42F
:102E3000FE01E35EFE4F81E090E09183808364C0F9
:102E4000FE01E15EFE4F608171818281938120E00D
:102E50003FEF4FE757E40E94110318160CF043C0F0
:102E6000FE01ED5DFE4F608171818281938120E0E2
:102E700030E040E251E40E941702DC01CB018E01F8
:102E8000035E1E4FBC01CD010E944100DC01CB015D
:102E9000F801918380831FC0FE01E55EFE4F88EC40
:102EA00090E091838083FE01E55EFE4F80819181F9
:102EB0000197F1F7FE01E55EFE4F91838083DE010D
:102EC000A35EBE4FFE01E35EFE4F808191810197BC
:102ED00011969C938E93FE01E35EFE4F808191815B
:102EE0000097D1F628C08E01035E1E4FFE01E15E01
:102EF000FE4F60817181828193810E944100DC01DB
:102F0000CB01F80191838083DE01A75EBE4FFE01F5
:102F1000E35EFE4F8081918111969C938E93FE011A
:102F2000E75EFE4F808191810197F1F7FE01E75E38
:102F3000FE4F91838083FE01ED5AFE4F8081FE019A
:102F4000E25BFE4F882F90E091838083FE01E25B7D
:102F5000FE4F808191818F3F910529F4FE01E25B54
:102F6000FE4F11821082DE01A25BBE4FFE01E25BCA
:102F7000FE4F8081918101968D939C93FE01E25BCF
:102F8000FE4F208181E090E0622F0E94BE08FE018A
:102F9000EB5EFE4F80E090E0A8ECB2E4808391838A
:102FA000A283B3838E010F5E1E4FFE01EB5EFE4FC8
:102FB000608171818281938120E030E04AEF54E4A6
:102FC0000E941702DC01CB01F80180839183A28368
:102FD000B383FE01EF5EFE4F608171818281938138
:102FE00020E030E040E85FE30E947103882344F46E
:102FF000FE01E15FFE4F81E090E09183808364C039
:10300000FE01EF5EFE4F608171818281938120E03D
:103010003FEF4FE757E40E94110318160CF043C02E
:10302000FE01EB5EFE4F608171818281938120E021
:1030300030E040E251E40E941702DC01CB018E0136
:10304000015F1E4FBC01CD010E944100DC01CB019C
:10305000F801918380831FC0FE01E35FFE4F88EC7F
:1030600090E091838083FE01E35FFE4F8081918138
:103070000197F1F7FE01E35FFE4F91838083DE014C
:10308000A15FBE4FFE01E15FFE4F808191810197FC
:1030900011969C938E93FE01E15FFE4F808191819A
:1030A0000097D1F627C08E01015F1E4FFE01EF5E33
:1030B000FE4F60817181828193810E944100DC0119
:1030C000CB01F80191838083DE01A55FBE4FFE0135
:1030D000E15FFE4F808191818D939C93FE01E55FBE
:1030E000FE4F808191810197F1F7FE01E55FFE4F70
:1030F00091838083FE01E25BFE4F80819181829506
:103100009295907F9827807F9827FE01E35BFE4F82
:1031100080838DEB90E06FE00E94B61081E060E06C
:103120000E949E10FE01E55BFE4F11821082CE01CF
:103130008E599E4F28E1FC01DF01822F1D928A9556
:10314000E9F7FE01EE59FE4F8FEF90E09183808307
:10315000C4C1FE01E05BFE4F83E2808306C00E9493
:103160006012FE01E05BFE4F8083FE01E05BFE4FDC
:1031700080818332A1F3FE01E05BFE4F80818034C9
:1031800009F4B4C1FE01E55BFE4F60817181FE016F
:10319000E05BFE4F8081482F50E09E012E593E4F4C
:1031A000CB01880F991FF901E80FF91F5183408364
:1031B000FE01E05BFE4F80810E94870EFE01E95F09
:1031C000FE4F80E090E0A8E4B2E480839183A28384
:1031D000B3838E010D5F1E4FFE01E95FFE4F6081DC
:1031E00071818281938120E030E04AEF54E40E94B3
:1031F0001702DC01CB01F80180839183A283B383A2
:10320000FE01ED5FFE4F608171818281938120E03C
:1032100030E040E85FE30E947103882344F4FE013C
:10322000EF5FFE4F81E090E09183808364C0FE01F8
:10323000ED5FFE4F608171818281938120E03FEFDD
:103240004FE757E40E94110318160CF043C0FE012B
:10325000E95FFE4F608171818281938120E030E0DF
:1032600040E251E40E941702DC01CB018E010F5FA6
:103270001E4FBC01CD010E944100DC01CB01F801D1
:10328000918380831FC0FE01E150FF4F88EC90E0E6
:1032900091838083FE01E150FF4F808191810197EE
:1032A000F1F7FE01E150FF4F91838083DE01AF5FB4
:1032B000BE4FFE01EF5FFE4F808191810197119615
:1032C0009C938E93FE01EF5FFE4F8081918100976A
:1032D000D1F627C08E010F5F1E4FFE01ED5FFE4F3E
:1032E00060817181828193810E944100DC01CB0168
:1032F000F80191838083DE01A350BF4FFE01EF5F91
:10330000FE4F808191818D939C93FE01E350FF4F8E
:10331000808191810197F1F7FE01E350FF4F918386
:103320008083FE01E35BFE4F8081282F30E0DE01C9
:10333000A85BBE4FFE01E55BFE4F80819181820F4D
:10334000931F8D939C93FE01E85BFE4F80819181DA
:10335000FE01E05BFE4F60810E94BE08FE01E75067
:10336000FF4F80E090E0A8ECB2E480839183A283D9
:10337000B3838E010B501F4FFE01E750FF4F60815A
:1033800071818281938120E030E04AEF54E40E9411
:103390001702DC01CB01F80180839183A283B38300
:1033A000FE01EB50FF4F608171818281938120E0AB
:1033B00030E040E85FE30E947103882344F4FE019B
:1033C000ED50FF4F81E090E09183808364C0FE0167
:1033D000EB50FF4F608171818281938120E03FEF4C
:1033E0004FE757E40E94110318160CF043C0FE018A
:1033F000E750FF4F608171818281938120E030E04E
:1034000040E251E40E941702DC01CB018E010D5015
:103410001F4FBC01CD010E944100DC01CB01F8012E
:10342000918380831FC0FE01EF50FF4F88EC90E036
:1034300091838083FE01EF50FF4F8081918101973E
:10344000F1F7FE01EF50FF4F91838083DE01AD5015
:10345000BF4FFE01ED50FF4F808191810197119682
:103460009C938E93FE01ED50FF4F808191810097D8
:10347000D1F627C08E010D501F4FFE01EB50FF4FBC
:1034800060817181828193810E944100DC01CB01C6
:10349000F80191838083DE01A151BF4FFE01ED5001
:1034A000FF4F808191818D939C93FE01E151FF4FED
:1034B000808191810197F1F7FE01E151FF4F9183E6
:1034C0008083DE01A55BBE4FFE01E55BFE4F808180
:1034D0009181019611969C938E93FE01E55BFE4FC0
:1034E000808191818C30910508F433CE0E940F10B9
:1034F0008DEC90E06DE00E94B610FE01E551FF4FAB
:1035000080E090E0A8ECB2E480839183A283B3834F
:103510008E0109511F4FFE01E551FF4F60817181FE
:103520008281938120E030E04AEF54E40E94170248
:10353000DC01CB01F80180839183A283B383FE0178
:10354000E951FF4F608171818281938120E030E0F9
:1035500040E85FE30E947103882344F4FE01EB51CD
:10356000FF4F81E090E09183808364C0FE01E951C8
:10357000FF4F608171818281938120E03FEF4FE7AF
:1035800057E40E94110318160CF043C0FE01E551E8
:10359000FF4F608171818281938120E030E040E2C1
:1035A00051E40E941702DC01CB018E010B511F4F29
:1035B000BC01CD010E944100DC01CB01F8019183E7
:1035C00080831FC0FE01ED51FF4F88EC90E0918396
:1035D0008083FE01ED51FF4F808191810197F1F7CA
:1035E000FE01ED51FF4F91838083DE01AB51BF4F50
:1035F000FE01EB51FF4F80819181019711969C93C1
:103600008E93FE01EB51FF4F808191810097D1F69F
:1036100027C08E010B511F4FFE01E951FF4F608102
:103620007181828193810E944100DC01CB01F8010C
:1036300091838083DE01AF51BF4FFE01EB51FF4FFD
:10364000808191818D939C93FE01EF51FF4F80818A
:1036500091810197F1F7FE01EF51FF4F9183808334
:103660000E940F10FE01E25BFE4F808191818295E6
:103670009295907F9827807F9827FE01E35BFE4F0D
:10368000845F80838BED90E06FE00E94B61081E054
:1036900060E00E949E10FE01E65BFE4F1082FE017C
:1036A000E658FE4F1082118212821382FE01E65804
:1036B000FE4F8FEF808373C2FE01E05BFE4F83E21B
:1036C000808306C00E946012FE01E05BFE4F808393
:1036D000FE01E05BFE4F80818332A1F3FE01E65BD9
:1036E000FE4F8081282F30E0CE0186589E4FDC01AE
:1036F000A20FB31FFE01E05BFE4F80818C93FE01A1
:10370000E05BFE4F80810E94870EFE01E352FF4F77
:1037100080E090E0A6E9B3E480839183A283B38341
:103720008E0107521F4FFE01E352FF4F60817181EE
:103730008281938120E030E04AEF54E40E94170236
:10374000DC01CB01F80180839183A283B383FE0166
:10375000E752FF4F608171818281938120E030E0E8
:1037600040E85FE30E947103882344F4FE01E952BC
:10377000FF4F81E090E09183808364C0FE01E752B7
:10378000FF4F608171818281938120E03FEF4FE79D
:1037900057E40E94110318160CF043C0FE01E352D7
:1037A000FF4F608171818281938120E030E040E2AF
:1037B00051E40E941702DC01CB018E0109521F4F18
:1037C000BC01CD010E944100DC01CB01F8019183D5
:1037D00080831FC0FE01EB52FF4F88EC90E0918385
:1037E0008083FE01EB52FF4F808191810197F1F7B9
:1037F000FE01EB52FF4F91838083DE01A952BF4F40
:10380000FE01E952FF4F80819181019711969C93AF
:103810008E93FE01E952FF4F808191810097D1F68E
:1038200027C08E0109521F4FFE01E752FF4F6081F2
:103830007181828193810E944100DC01CB01F801FA
:1038400091838083DE01AD52BF4FFE01E952FF4FED
:10385000808191818D939C93FE01ED52FF4F808179
:1038600091810197F1F7FE01ED52FF4F9183808323
:10387000FE01E65BFE4F81E060810E949E108AE2BD
:103880000E94870EFE01E153FF4F80E090E0A8E424
:10389000B2E480839183A283B3838E0105531F4FCB
:1038A000FE01E153FF4F608171818281938120E0AD
:1038B00030E04AEF54E40E941702DC01CB01F8012A
:1038C00080839183A283B383FE01E553FF4F608120
:1038D00071818281938120E030E040E85FE30E94C3
:1038E0007103882344F4FE01E753FF4F81E090E029
:1038F0009183808364C0FE01E553FF4F6081718135
:103900008281938120E03FEF4FE757E40E9411034B
:1039100018160CF043C0FE01E153FF4F6081718126
:103920008281938120E030E040E251E40E9417025E
:10393000DC01CB018E0107531F4FBC01CD010E945A
:103940004100DC01CB01F801918380831FC0FE019F
:10395000E953FF4F88EC90E091838083FE01E953A7
:10396000FF4F808191810197F1F7FE01E953FF4FED
:1039700091838083DE01A753BF4FFE01E753FF4FC2
:1039800080819181019711969C938E93FE01E7535C
:10399000FF4F808191810097D1F627C08E01075398
:1039A0001F4FFE01E553FF4F60817181828193813A
:1039B0000E944100DC01CB01F80191838083DE018C
:1039C000AB53BF4FFE01E753FF4F808191818D9331
:1039D0009C93FE01EB53FF4F808191810197F1F79A
:1039E000FE01EB53FF4F91838083FE01E35BFE4FAB
:1039F0008081282F30E0FE01E65BFE4F8081882F1A
:103A000090E0820F931FFE01EA5BFE4F918380835B
:103A1000FE01EA5BFE4F80819181FE01E05BFE4F7B
:103A200060810E94BE08FE01EF53FF4F80E090E0EE
:103A3000A8ECB2E480839183A283B3838E01035404
:103A40001F4FFE01EF53FF4F60817181828193818F
:103A500020E030E04AEF54E40E941702DC01CB0181
:103A6000F80180839183A283B383FE01E354FF4F67
:103A7000608171818281938120E030E040E85FE3E2
:103A80000E947103882344F4FE01E554FF4F81E056
:103A900090E09183808364C0FE01E354FF4F608116
:103AA00071818281938120E03FEF4FE757E40E94CC
:103AB000110318160CF043C0FE01EF53FF4F608155
:103AC00071818281938120E030E040E251E40E94E4
:103AD0001702DC01CB018E0105541F4FBC01CD0143
:103AE0000E944100DC01CB01F801918380831FC05B
:103AF000FE01E754FF4F88EC90E091838083FE0144
:103B0000E754FF4F808191810197F1F7FE01E7545F
:103B1000FF4F91838083DE01A554BF4FFE01E55422
:103B2000FF4F80819181019711969C938E93FE01A6
:103B3000E554FF4F808191810097D1F627C08E0117
:103B400005541F4FFE01E354FF4F60817181828154
:103B500093810E944100DC01CB01F80191838083B5
:103B6000DE01A954BF4FFE01E554FF4F80819181D2
:103B70008D939C93FE01E954FF4F808191810197C1
:103B8000F1F7FE01E954FF4F91838083DE01A65BCC
:103B9000BE4FFE01E65BFE4F80818F5F8C93FE017E
:103BA000E65BFE4F8081843008F486CD0E940F10C2
:103BB0008BEE90E06DE00E94B610FE01ED54FF4FD9
:103BC00080E090E0AAE7B4E480839183A283B3838A
:103BD0008E0101551F4FFE01ED54FF4F6081718131
:103BE0008281938120E030E04AEF54E40E94170282
:103BF000DC01CB01F80180839183A283B383FE01B2
:103C0000E155FF4F608171818281938120E030E036
:103C100040E85FE30E947103882344F4FE01E3550A
:103C2000FF4F81E090E09183808364C0FE01E15505
:103C3000FF4F608171818281938120E03FEF4FE7E8
:103C400057E40E94110318160CF043C0FE01ED5416
:103C5000FF4F608171818281938120E030E040E2FA
:103C600051E40E941702DC01CB018E0103551F4F66
:103C7000BC01CD010E944100DC01CB01F801918320
:103C800080831FC0FE01E555FF4F88EC90E09183D3
:103C90008083FE01E555FF4F808191810197F1F707
:103CA000FE01E555FF4F91838083DE01A355BF4F91
:103CB000FE01E355FF4F80819181019711969C93FE
:103CC0008E93FE01E355FF4F808191810097D1F6DD
:103CD00027C08E0103551F4FFE01E155FF4F608144
:103CE0007181828193810E944100DC01CB01F80146
:103CF00091838083DE01A755BF4FFE01E355FF4F3F
:103D0000808191818D939C93FE01E755FF4F8081C7
:103D100091810197F1F7FE01E755FF4F9183808371
:103D20000E940F1089EF90E06DE00E94B610FE0136
:103D3000EB55FF4F80E090E0AAE7B4E480839183E5
:103D4000A283B3838E010F551F4FFE01EB55FF4F2A
:103D5000608171818281938120E030E04AEF54E4F8
:103D60000E941702DC01CB01F80180839183A283BA
:103D7000B383FE01EF55FF4F608171818281938192
:103D800020E030E040E85FE30E947103882344F4C0
:103D9000FE01E156FF4F81E090E09183808364C093
:103DA000FE01EF55FF4F608171818281938120E098
:103DB0003FEF4FE757E40E94110318160CF043C081
:103DC000FE01EB55FF4F608171818281938120E07C
:103DD00030E040E251E40E941702DC01CB018E0189
:103DE00001561F4FBC01CD010E944100DC01CB01F7
:103DF000F801918380831FC0FE01E356FF4F88ECDA
:103E000090E091838083FE01E356FF4F8081918192
:103E10000197F1F7FE01E356FF4F91838083DE01A6
:103E2000A156BF4FFE01E156FF4F8081918101975E
:103E300011969C938E93FE01E156FF4F80819181F4
:103E40000097D1F627C08E0101561F4FFE01EF5596
:103E5000FF4F60817181828193810E944100DC016A
:103E6000CB01F80191838083DE01A556BF4FFE018F
:103E7000E156FF4F808191818D939C93FE01E55621
:103E8000FF4F808191810197F1F7FE01E556FF4FC9
:103E9000918380830E940F100E94E315C954DE4F66
:103EA0008883C75BD1400C9418290E940F10FE0133
:103EB000EB5BFE4F1082FE01EC5BFE4F1082FE01B9
:103EC000ED5BFE4F10829E012D5A3E4F81E090E047
:103ED000B90141E00E940D09DE01AD5BBE4FFE015C
:103EE000ED5AFE4F80818C93FE01E956FF4F80E032
:103EF00090E0A8ECB2E480839183A283B3838E0127
:103F00000D561F4FFE01E956FF4F6081718182817E
:103F1000938120E030E04AEF54E40E941702DC0174
:103F2000CB01F80180839183A283B383FE01ED5618
:103F3000FF4F608171818281938120E030E040E811
:103F40005FE30E947103882344F4FE01EF56FF4FA4
:103F500081E090E09183808364C0FE01ED56FF4FC5
:103F6000608171818281938120E03FEF4FE757E4C8
:103F70000E94110318160CF043C0FE01E956FF4FD2
:103F8000608171818281938120E030E040E251E4E0
:103F90000E941702DC01CB018E010F561F4FBC019E
:103FA000CD010E944100DC01CB01F80191838083A7
:103FB0001FC0FE01E157FF4F88EC90E091838083A2
:103FC000FE01E157FF4F808191810197F1F7FE01DA
:103FD000E157FF4F91838083DE01AF56BF4FFE0153
:103FE000EF56FF4F80819181019711969C938E939C
:103FF000FE01EF56FF4F808191810097D1F628C0D6
:104000008E010F561F4FFE01ED56FF4F60817181EB
:10401000828193810E944100DC01CB01F8019183F0
:104020008083DE01A357BF4FFE01EF56FF4F808113
:10403000918111969C938E93FE01E357FF4F8081EF
:1040400091810197F1F7FE01E357FF4F9183808340
:10405000FE01ED5BFE4F80818F3F11F00C94EC2848
:1040600087E091E06FE00E94B610C954DE4F1882DD
:10407000C75BD1400C941829FE01EF5BFE4F118203
:104080001082CE0182589E4F28E1FC01DF01822F71
:104090001D928A95E9F7FE01E258FE4F8FEF90E0FE
:1040A00091838083CE018A569E4F28E1FC01DF0177
:1040B000822F1D928A95E9F7FE01EA56FE4F8FEF97
:1040C00090E091838083FE01E25CFE4F10821BC072
:1040D000FE01E25CFE4F8081882F90E09E01225815
:1040E0003E4F880F991FF901E80FF91F8FEF90E0FD
:1040F00091838083DE01A25CBE4FFE01E25CFE4F35
:1041000080818F5F8C93FE01E25CFE4F80818C305A
:10411000F8F2FE01E05BFE4F83E280830E940F1005
:1041200087E191E06BE00E94B61081E060E00E94C0
:104130009E10FE01E757FF4F80E090E0A8E4B3E453
:1041400080839183A283B3838E010B571F4FFE019F
:10415000E757FF4F608171818281938120E030E0D9
:104160004AEF54E40E941702DC01CB01F80180837E
:104170009183A283B383FE01EB57FF4F608171816E
:104180008281938120E030E040E85FE30E94710388
:10419000882344F4FE01ED57FF4F81E090E09183C6
:1041A000808364C0FE01EB57FF4F60817181828183
:1041B000938120E03FEF4FE757E40E941103181668
:1041C0000CF043C0FE01E757FF4F6081718182818F
:1041D000938120E030E040E251E40E941702DC01CC
:1041E000CB018E010D571F4FBC01CD010E94410034
:1041F000DC01CB01F801918380831FC0FE01EF57E2
:10420000FF4F88EC90E091838083FE01EF57FF4FD2
:10421000808191810197F1F7FE01EF57FF4F918364
:104220008083DE01AD57BF4FFE01ED57FF4F808108
:104230009181019711969C938E93FE01ED57FF4F4C
:10424000808191810097D1F628C08E010D571F4FB4
:10425000FE01EB57FF4F60817181828193810E9443
:104260004100DC01CB01F80191838083DE01A1587C
:10427000BF4FFE01ED57FF4F8081918111969C93B6
:104280008E93FE01E158FF4F808191810197F1F7F4
:10429000FE01E158FF4F91838083FE01EF5BFE4FEB
:1042A00011821082F4C0FE01E05BFE4F83E2808346
:1042B00006C00E946012FE01E05BFE4F8083FE019B
:1042C000E05BFE4F80818332A1F3FE01E05BFE4F95
:1042D0008081803409F4E4C0FE01EF5BFE4F608111
:1042E0007181FE01E05BFE4F8081482F50E09E010E
:1042F00022583E4FCB01880F991FF901E80FF91F93
:1043000051834083FE01E05BFE4F80810E94870E57
:10431000FE01E558FF4F80E090E0A8E4B2E480831E
:104320009183A283B3838E0109581F4FFE01E55884
:10433000FF4F608171818281938120E030E04AEFFC
:1043400054E40E941702DC01CB01F80180839183C1
:10435000A283B383FE01E958FF4F6081718182819E
:10436000938120E030E040E85FE30E9471038823FE
:1043700044F4FE01EB58FF4F81E090E0918380838D
:1043800064C0FE01E958FF4F608171818281938191
:1043900020E03FEF4FE757E40E94110318160CF09E
:1043A00043C0FE01E558FF4F608171818281938196
:1043B00020E030E040E251E40E941702DC01CB0132
:1043C0008E010B581F4FBC01CD010E944100DC0142
:1043D000CB01F801918380831FC0FE01ED58FF4F90
:1043E00088EC90E091838083FE01ED58FF4F80813F
:1043F00091810197F1F7FE01ED58FF4F9183808382
:10440000DE01AB58BF4FFE01EB58FF4F8081918119
:10441000019711969C938E93FE01EB58FF4F80817C
:1044200091810097D1F627C08E010B581F4FFE01D6
:10443000E958FF4F60817181828193810E94410020
:10444000DC01CB01F80191838083DE01AF58BF4FBF
:10445000FE01EB58FF4F808191818D939C93FE016B
:10446000EF58FF4F808191810197F1F7FE01EF58DE
:10447000FF4F91838083DE01AF5BBE4FFE01EF5B98
:10448000FE4F80819181019611969C938E93FE013F
:10449000EF5BFE4F808191818C30910508F403CF52
:1044A000FE01E05CFE4F1082FE01E255FE4F1082DD
:1044B000118212821382FE01E255FE4F8FEF80833C
:1044C000FE01EE54FE4F1082118212821382FE0111
:1044D000EE54FE4F8FEF8083FE01E05BFE4F83E2E0
:1044E00080830E940F1083E291E06BE00E94B6107F
:1044F00081E060E00E949E10FE01E359FF4F80E0E2
:1045000090E0A8E4B3E480839183A283B3838E0117
:1045100007591F4FFE01E359FF4F6081718182816E
:10452000938120E030E04AEF54E40E941702DC015E
:10453000CB01F80180839183A283B383FE01E75905
:10454000FF4F608171818281938120E030E040E8FB
:104550005FE30E947103882344F4FE01E959FF4F91
:1045600081E090E09183808364C0FE01E759FF4FB2
:10457000608171818281938120E03FEF4FE757E4B2
:104580000E94110318160CF043C0FE01E359FF4FBF
:10459000608171818281938120E030E040E251E4CA
:1045A0000E941702DC01CB018E0109591F4FBC018B
:1045B000CD010E944100DC01CB01F8019183808391
:1045C0001FC0FE01EB59FF4F88EC90E09183808380
:1045D000FE01EB59FF4F808191810197F1F7FE01B8
:1045E000EB59FF4F91838083DE01A959BF4FFE0134
:1045F000E959FF4F80819181019711969C938E9389
:10460000FE01E959FF4F808191810097D1F628C0C2
:104610008E0109591F4FFE01E759FF4F60817181DB
:10462000828193810E944100DC01CB01F8019183DA
:104630008083DE01AD59BF4FFE01E959FF4F8081F4
:10464000918111969C938E93FE01ED59FF4F8081CD
:1046500091810197F1F7FE01ED59FF4F918380831E
:10466000FE01E05CFE4F1082A2C1FE01E05BFE4F46
:1046700083E2808306C00E946012FE01E05BFE4F71
:104680008083FE01E05BFE4F80818332A1F3FE0157
:10469000E05CFE4F8081282F30E0CE0182559E4F96
:1046A000DC01A20FB31FFE01E05BFE4F80818C9303
:1046B000FE01E05BFE4F80810E94870EFE01E15A01
:1046C000FF4F80E090E0A6E9B3E480839183A2836A
:1046D000B3838E01055A1F4FFE01E15AFF4F6081DF
:1046E00071818281938120E030E04AEF54E40E949E
:1046F0001702DC01CB01F80180839183A283B3838D
:10470000FE01E55AFF4F608171818281938120E033
:1047100030E040E85FE30E947103882344F4FE0127
:10472000E75AFF4F81E090E09183808364C0FE01EF
:10473000E55AFF4F608171818281938120E03FEFD4
:104740004FE757E40E94110318160CF043C0FE0116
:10475000E15AFF4F608171818281938120E030E0D6
:1047600040E251E40E941702DC01CB018E01075A9E
:104770001F4FBC01CD010E944100DC01CB01F801BB
:10478000918380831FC0FE01E95AFF4F88EC90E0BF
:1047900091838083FE01E95AFF4F808191810197C7
:1047A000F1F7FE01E95AFF4F91838083DE01A75A9A
:1047B000BF4FFE01E75AFF4F80819181019711960B
:1047C0009C938E93FE01E75AFF4F80819181009761
:1047D000D1F627C08E01075A1F4FFE01E55AFF4F41
:1047E00060817181828193810E944100DC01CB0153
:1047F000F80191838083DE01AB5ABF4FFE01E75A77
:10480000FF4F808191818D939C93FE01EB5AFF4F66
:10481000808191810197F1F7FE01EB5AFF4F91835F
:104820008083FE01E05CFE4F81E060810E949E106B
:104830008AE20E94870EFE01EF5AFF4F80E090E06F
:10484000A8ECB2E480839183A283B3838E01035BDF
:104850001F4FFE01EF5AFF4F60817181828193816A
:1048600020E030E04AEF54E40E941702DC01CB0163
:10487000F80180839183A283B383FE01E35BFF4F42
:10488000608171818281938120E030E040E85FE3C4
:104890000E947103882344F4FE01E55BFF4F81E031
:1048A00090E09183808364C0FE01E35BFF4F6081F1
:1048B00071818281938120E03FEF4FE757E40E94AE
:1048C000110318160CF043C0FE01EF5AFF4F608130
:1048D00071818281938120E030E040E251E40E94C6
:1048E0001702DC01CB018E01055B1F4FBC01CD011E
:1048F0000E944100DC01CB01F801918380831FC03D
:10490000FE01E75BFF4F88EC90E091838083FE011E
:10491000E75BFF4F808191810197F1F7FE01E75B33
:10492000FF4F91838083DE01A55BBF4FFE01E55BF6
:10493000FF4F80819181019711969C938E93FE0188
:10494000E55BFF4F808191810097D1F627C08E01F2
:10495000055B1F4FFE01E35BFF4F60817181828128
:1049600093810E944100DC01CB01F8019183808397
:10497000DE01A95BBF4FFE01E55BFF4F80819181A6
:104980008D939C93FE01E95BFF4F8081918101979C
:10499000F1F7FE01E95BFF4F91838083DE01A05CAC
:1049A000BE4FFE01E05CFE4F80818F5F8C93FE0165
:1049B000E05CFE4F8081843008F457CE0E940F10D7
:1049C0008FE291E06EE00E94B610FE01E15CFE4FC6
:1049D0001082FE01ED5BFF4F80E090E0AAEFB3E4B0
:1049E00080839183A283B3838E01015C1F4FFE01FC
:1049F000ED5BFF4F608171818281938120E030E027
:104A00004AEF54E40E941702DC01CB01F8018083D5
:104A10009183A283B383FE01FF96608171818281BD
:104A2000938120E030E040E85FE30E947103882337
:104A30002CF481E090E09EAF8DAF46C0FE01FF9662
:104A4000608171818281938120E03FEF4FE757E4DD
:104A50000E941103181664F5FE01ED5BFF4F6081A3
:104A600071818281938120E030E040E251E40E9434
:104A70001702DC01CB01BC01CD010E944100DC0129
:104A8000CB019EAF8DAF0FC088EC90E09CAF8BAF99
:104A90008BAD9CAD0197F1F79CAF8BAF8DAD9EAD0B
:104AA00001979EAF8DAF8DAD9EAD009769F716C093
:104AB000FE01FF9660817181828193810E94410095
:104AC000DC01CB019EAF8DAF8DAD9EAD9AAF89AFAE
:104AD00089AD9AAD0197F1F79AAF89AF0E940F1097
:104AE000FE01E45CFE4F81E090E09183808322C16F
:104AF000FE01E85CFE4F10821BC0FE01E85CFE4F29
:104B00008081882F90E09E012A563E4F880F991F82
:104B1000F901E80FF91F8FEF90E091838083DE01A8
:104B2000A85CBE4FFE01E85CFE4F80818F5F8C93D6
:104B3000FE01E85CFE4F80818C30F8F2FE01E55CFE
:104B4000FE4F81E08083FE01E65CFE4F81E08083C2
:104B5000FE01E45CFE4F8081918182959295907F69
:104B60009827807F9827FE01E75CFE4F8083FE0137
:104B7000E95CFE4F108235C0FE01E75CFE4F80818C
:104B8000282F30E0FE01E95CFE4F8081882F90E005
:104B9000820F931F9E012D5A3E4FB90141E00E94A2
:104BA0000D09FE01E95CFE4F8081682F70E0FE0177
:104BB000ED5AFE4F8081482F50E09E012A563E4F0D
:104BC000CB01880F991FF901E80FF91F518340832A
:104BD000DE01A95CBE4FFE01E95CFE4F80818F5F64
:104BE0008C93FE01E95CFE4F80818C3028F2DE015F
:104BF000A75CBE4FFE01E75CFE4F8081845F8C9313
:104C0000FE01E75CFE4F8081882F90E09E012E54CC
:104C10003E4FB90144E00E940D09FE01EA5CFE4FDF
:104C2000108230C0FE01EA5CFE4F8081882F90E048
:104C30009E012A563E4F880F991FF901E80FF91F70
:104C400040815181FE01EA5CFE4F8081882F90E017
:104C50009E0122583E4F880F991FF901E80FF91F56
:104C6000808191814817590721F0FE01E55CFE4FD4
:104C70001082DE01AA5CBE4FFE01EA5CFE4F80811D
:104C80008F5F8C93FE01EA5CFE4F80818C3050F286
:104C9000FE01EB5CFE4F108229C0FE01EB5CFE4F73
:104CA0008081282F30E0CE018E549E4FFC01E20F10
:104CB000F31F4081FE01EB5CFE4F8081282F30E026
:104CC000CE0182559E4FFC01E20FF31F80814817F1
:104CD00021F0FE01E65CFE4F1082DE01AB5CBE4FB0
:104CE000FE01EB5CFE4F80818F5F8C93FE01EB5CDD
:104CF000FE4F8081843088F2FE01E55CFE4F8081AA
:104D0000882361F0FE01E65CFE4F8081882331F04C
:104D1000FE01E15CFE4F81E080831BC0DE01A45CEC
:104D2000BE4FFE01E45CFE4F808191810196119699
:104D30009C938E93FE01ED5BFE4F8081282F30E027
:104D4000FE01E45CFE4F808191812817390708F04D
:104D5000CFCEFE01E15CFE4F8081813009F009C1B8
:104D6000FE01EC5BFE4F10828FE391E06EE00E944B
:104D7000B6100E94A915FE01EF5AFE4F81E090E0A7
:104D80009183808380E090E8ABEBB4E48DAB9EAB85
:104D9000AFABB8AF6DA97EA98FA998AD20E030E088
:104DA0004AEF54E40E941702DC01CB0189AB9AABB5
:104DB000ABABBCAB69A97AA98BA99CA920E030E078
:104DC00040E85FE30E94710388232CF481E090E0C7
:104DD00098AB8FA73FC069A97AA98BA99CA920E0AD
:104DE0003FEF4FE757E40E94110318164CF56DA9E9
:104DF0007EA98FA998AD20E030E040E251E40E9406
:104E00001702DC01CB01BC01CD010E944100DC0195
:104E1000CB0198AB8FA70FC088EC90E09EA78DA721
:104E20008DA59EA50197F1F79EA78DA78FA598A99F
:104E3000019798AB8FA78FA598A9009769F714C021
:104E400069A97AA98BA99CA90E944100DC01CB0128
:104E500098AB8FA78FA598A99CA78BA78BA59CA57E
:104E60000197F1F79CA78BA70E940F108EE491E0A9
:104E70006FE00E94B61081E060E00E949E108EE517
:104E800091E06CE00E94B61080E090E8ABEBB4E4F7
:104E90008FA398A7A9A7BAA76FA178A589A59AA556
:104EA00020E030E04AEF54E40E941702DC01CB011D
:104EB0008BA39CA3ADA3BEA36BA17CA18DA19EA13E
:104EC00020E030E040E85FE30E94710388232CF487
:104ED00081E090E09AA389A33FC06BA17CA18DA142
:104EE0009EA120E03FEF4FE757E40E941103181600
:104EF0004CF56FA178A589A59AA520E030E040E2A5
:104F000051E40E941702DC01CB01BC01CD010E94DB
:104F10004100DC01CB019AA389A30FC088EC90E08B
:104F200098A38F8F8F8D98A10197F1F798A38F8FFA
:104F300089A19AA101979AA389A389A19AA100970F
:104F400069F714C06BA17CA18DA19EA10E944100B4
:104F5000DC01CB019AA389A389A19AA19E8F8D8F91
:104F60008D8D9E8D0197F1F79E8F8D8F0E940F1072
:104F700056C1DE01AC5BBE4FFE01EC5BFE4F808193
:104F80008F5F8C930E940F100E9491158BE691E029
:104F90006AE00E94B61081E060E00E949E1086E701
:104FA00091E06BE00E94B610FE01EC5BFE4F808149
:104FB000282F30E083E090E0821B930BAA2797FD17
:104FC000A095BA2FBC01CD010E94970F80E090E020
:104FD000AAEFB4E4898F9A8FAB8FBC8F698D7A8DDD
:104FE0008B8D9C8D20E030E04AEF54E40E94170244
:104FF000DC01CB018D8B9E8BAF8BB88F6D897E8949
:105000008F89988D20E030E040E85FE30E947103D3
:1050100088232CF481E090E09C8B8B8B3FC06D89C2
:105020007E898F89988D20E03FEF4FE757E40E94FB
:10503000110318164CF5698D7A8D8B8D9C8D20E0AF
:1050400030E040E251E40E941702DC01CB01BC01D8
:10505000CD010E944100DC01CB019C8B8B8B0FC0EA
:1050600088EC90E09A8B898B89899A890197F1F76E
:105070009A8B898B8B899C8901979C8B8B8B8B89D5
:105080009C89009769F714C06D897E898F89988DF6
:105090000E944100DC01CB019C8B8B8B8B899C890E
:1050A000988B8F878F8598890197F1F7988B8F87D9
:1050B0000E949D150E940F10FE01EC5BFE4F808147
:1050C000833008F489C00E94C1150E94911582E8BE
:1050D00091E06FE00E94B61081E060E00E949E10B7
:1050E00082E991E06FE00E94B61080E090E8ABE3C7
:1050F000B5E48B879C87AD87BE876B857C858D8566
:105100009E8520E030E04AEF54E40E941702DC0163
:10511000CB018F839887A987BA876F817885898526
:105120009A8520E030E040E85FE30E947103882325
:105130002CF481E090E09E838D833FC06F81788561
:1051400089859A8520E03FEF4FE757E40E941103DD
:1051500018164CF56B857C858D859E8520E030E0AA
:1051600040E251E40E941702DC01CB01BC01CD01F9
:105170000E944100DC01CB019E838D830FC088EC2F
:1051800090E09C838B838B819C810197F1F79C83BA
:105190008B838D819E8101979E838D838D819E81DE
:1051A000009769F714C06F81788589859A850E9478
:1051B0004100DC01CB019E838D838D819E819A838A
:1051C000898389819A810197F1F79A8389830E9463
:1051D0009D150E94D21523C0CA54DE4F1882C65BAB
:1051E000D140FE01EB5BFE4F8081833030F4F1E073
:1051F000CA54DE4FF883C65BD140DE01AB5BBE4FC5
:10520000FE01EB5BFE4F80818F5F8C93CA54DE4FB3
:105210008881C65BD140882311F00C943C20FE01AC
:10522000EF5AFE4FA081C954DE4FA883C75BD1401F
:10523000C954DE4F8881C75BD140C954DE4F0FB6D9
:10524000F894DEBF0FBECDBFCF91DF911F910F91BC
:105250000895A1E21A2EAA1BBB1BFD010DC0AA1FB7
:10526000BB1FEE1FFF1FA217B307E407F50720F0CF
:10527000A21BB30BE40BF50B661F771F881F991F4A
:105280001A9469F760957095809590959B01AC0193
:10529000BD01CF0108952F923F924F925F926F927E
:1052A0007F928F929F92AF92BF92CF92DF92EF92B6
:1052B000FF920F931F93CF93DF93CDB7DEB7CA1B37
:1052C000DB0B0FB6F894DEBF0FBECDBF09942A8862
:1052D000398848885F846E847D848C849B84AA840A
:1052E000B984C884DF80EE80FD800C811B81AA8197
:1052F000B981CE0FD11D0FB6F894DEBF0FBECDBF62
:08530000ED010895F894FFCFC0
:1053080057656C636F6D6520746F20736D6172747F
:1053180000686F6D652073797374656D0031206660
:105328006F72204F70656E20446F6F720030206678
:105338006F7220636C6F736520646F6F72203A0020
:105348003020666F72205265676973746572003128
:1053580020666F72204C6F67696E203A005365743F
:105368002075736572206E616D65203A006E616DFF
:1053780065206973207361766564005365742075D0
:105388007365722070617373203A007061737320C3
:105398006973207361766564005265676973746523
:1053A8007220646F6E65004E4F2052656769737492
:1053B80065722079657400456E746572204E616D62
:1053C800653A00456E74657220506173733A0057F0
:1053D80061697420666F7220636865636B3A005276
:1053E800696768742044617461203A292000576510
:1053F8006C636F6D6520746F20686F6D65004E6F0C
:10540800757220616E64204F6C610057726F6E6711
:105418002050617373005472696573206C656674FB
:105428003A0053657373696F6E2054696D656F75C3
:105438007400596F752043616E277420456E74653A
:1054480072000000000000000000020017151F0095
:1054580000000000000407040C18040A00151F00CF
:105468000000060E04040404000000000E0A0E02E8
:1054780004080000000007040C180000040A1B0AB6
:0A5488000400000007041F000000EC
:00000001FF
